:020000040800F2
:1000000000500020890F0008CD0F0008CD0F000818
:10001000CD0F0008CD0F0008CD0F00080000000034
:10002000000000000000000000000000CD0F0008EC
:10003000CD0F000800000000CD0F0008CD0F000814
:10004000CD0F0008CD0F0008CD0F0008CD0F000820
:10005000CD0F0008CD0F0008CD0F0008CD0F000810
:10006000CD0F0008CD0F0008CD0F0008CD0F000800
:10007000CD0F0008CD0F0008CD0F0008CD0F0008F0
:10008000CD0F0008CD0F0008CD0F0008CD0F0008E0
:10009000CD0F0008CD0F0008CD0F0008CD0F0008D0
:1000A000CD0F0008CD0F0008CD0F0008CD0F0008C0
:1000B000CD0F0008CD0F0008CD0F0008CD0F0008B0
:1000C000CD0F0008CD0F0008CD0F0008CD0F0008A0
:1000D000CD0F000875030008CD0F0008CD0F0008F4
:1000E000CD0F0008CD0F0008CD0F00080000000064
:1000F0000000000000000000000000000000000000
:0C01000000000000000000005FF808F1A3
:10010C0010B5054C237833B9044B13B10448AFF345
:10011C0000800123237010BD7C0000200000000033
:10012C007018000808B5034B1BB103490348AFF323
:10013C00008008BD0000000080000020701800083E
:10014C0008B5012144F2150000F016FC08BD0000B2
:10015C0030B583B00123ADF8043048258DF8075035
:10016C0003238DF80630134C01A9204600F08EFDB8
:10017C004FF40053ADF8043010238DF8073001A96B
:10018C000D4800F083FD4FF40073ADF804301823D4
:10019C008DF8073001A9204600F078FD4FF48063FC
:1001AC00ADF804308DF8075001A9204600F06EFD23
:1001BC0003B030BD000801400010014030B585B0DF
:1001CC004FF4165300930C23ADF80A300024ADF80D
:1001DC000840ADF80640ADF80440ADF80C400B4DAE
:1001EC006946284600F044FC012240F2255128467D
:1001FC0000F0B0FC064B83F8254320225A60012105
:10020C00284600F099FC05B030BD00BF0038014015
:10021C0000E100E010B5FFF793FFFFF799FFFFF740
:10022C00CDFF0121184800F080FD58B3174B202258
:10023C00C3F88420BFF34F8FBFF36F8F144C002291
:10024C0040F22551204600F085FC0021204600F0AC
:10025C0073FC204600F0BAFB0E4800F0A7FC0A48DD
:10026C0000F0A4FC00F008FD002144F2150000F0A1
:10027C0083FB094B5B689847FEE700F043FA0028C4
:10028C00FBD1D3E70120FAE70008014000E100E0D0
:10029C00003801400010014000400008074B93F863
:1002AC00FF30042B08D8054890F8013103EB4303C9
:1002BC0003EB03131844704700207047A80000207C
:1002CC000A4A92F8FF30013382F8FF3092F801317C
:1002DC000133DBB20649A1FB030101F0FC0000EB8A
:1002EC0091015B1A82F80131704700BFA800002011
:1002FC00CDCCCCCC074B93F8FF3043B1054890F8EC
:10030C00003103EB430303EB031318447047002045
:10031C00704700BFA80000200E4991F8003103EB94
:10032C00430202EB02120A44002082F8320091F8D8
:10033C00FF20013A81F8FF200133DBB2064AA2FB11
:10034C00030202F0FC0000EB92029B1A81F80031D0
:10035C00704700BFA8000020CDCCCCCC014B93F84B
:10036C00FF007047A800002008B51D4B1B78012B1F
:10037C001CD11C4B1B68EBB11B4800F00BFC194B40
:10038C001A6892F832105054196891F83230CA5CDD
:10039C000A2A1CD00133DBB2144AA2FB0302120955
:1003AC00322000FB123381F8323008BD0E4800F0C9
:1003BC00F1FBFAE7FFF772FF0A4B18600028DBD15C
:1003CC00074B03221A70084800F0E4FBEDE70133F9
:1003DC0081F83230034B00221A60FFF771FFE4E71B
:1003EC0098000020B0010020003801401F85EB511F
:1003FC0010B5044609E0074800F0C8FB8021054809
:10040C0000F0CCFB0128F9D1013421780029F2D17C
:10041C0010BD00BF0038014003463038C0B2092877
:10042C000AD9A3F14102D2B2052A06D9A3F161027D
:10043C00D2B2052A04D9FF207047373BD8B2704797
:10044C00573BD8B2704700002DE9F84F06460D46D1
:10045C0000231C4695F832209A4207D9EA5C0D2AF3
:10046C0004D00134E4B20133DBB2F3E70A2C40F2DE
:10047C0028812B783A2B40F02681A878FFF7CCFF07
:10048C0080466878FFF7C8FF48EA00185FFA88F8DA
:10049C0086F832800B3CE3B214F0010440F0178173
:1004AC00B8EB530F40F01581E878FFF7B5FF8246A3
:1004BC002879FFF7B1FF07466879FFF7ADFF814652
:1004CC00A879FFF7A9FF3B0243EA0A331BB243EAC0
:1004DC0009131BB218431FFA80FAC0F307274744CD
:1004EC00FBB2C7B21F44FFB2E879FFF795FF814614
:1004FC00287AFFF791FF40EA09195FFA89F94F440E
:10050C00FFB2B9F1000F21D17B4B1B6853447363CD
:10051C004FF0090AC8455BD915F80A00FFF77CFFB4
:10052C0083460AF10103E85CFFF776FF40EA0B1003
:10053C00C0B206F809000744FFB20AF1020A5FFADA
:10054C008AFA09F101095FFA89F9E3E7B9F1010FB8
:10055C0032D0B9F1020F4FD0B9F1040F7BD0B9F101
:10056C00050F40F0C280B8F1040F40F0C080BAF122
:10057C00000F40F0BE80A1464FF0090AC84540F27A
:10058C00998015F80A00FFF747FF83460AF101032B
:10059C00E85CFFF741FFC9F1030240EA0B13DBB241
:1005AC00B3541F44FFB20AF1020A5FFA8AFA09F146
:1005BC0001095FFA89F9E1E7B8F1000F03D0BAF14C
:1005CC00000F40F088804D4B02221A704FF0090A40
:1005DC0015F80A00FFF720FF06460AF1010A15F884
:1005EC000A00FFF719FF40EA0613DBB27F42FFB2A5
:1005FC00BB4269D0EF2467E0B8F1020F6DD1BAF1BC
:10060C00000F6CD1687AFFF707FF8246A87AFFF7D4
:10061C0003FF8046E87AFFF7FFFE8146287BFFF751
:10062C00FBFE4FEA083242EA0A4242EA092242EA57
:10063C00001231490A6048EA0A12D2B23A44D2B2E4
:10064C0040EA0913DFB23A44D7B2002386F83230BD
:10065C004FF00D0ABCE7B8F1020F42D1BAF1000F0E
:10066C0041D1687AFFF7D8FE8246A87AFFF7D4FE0C
:10067C008046E87AFFF7D0FE8146287BFFF7CCFE58
:10068C004FEA086343EA0A7343EA095343EA004317
:10069C0019490B6048EA0A13DBB23B44DBB240EA6F
:1006AC000912D7B23B44DFB2002386F832304FF048
:1006BC000D0A8DE73268124B1A60002386F832302F
:1006CC0086E7FF2400E0FE242046BDE8F88FFC24DA
:1006DC00FAE7FC24F8E7F824F6E7F724F4E7F72424
:1006EC00F2E7F524F0E7F524EEE7F124ECE7F32448
:1006FC00EAE7F324E8E700BFAC01002098000020F3
:10070C000000002070B5A8B000210191602202A861
:10071C0000F057FC5C4B1C78032C00F2B380DFE834
:10072C0004F0022996A900F007FB584D584EB60A62
:10073C00B44213D2284600F03DFB042804D105F541
:10074C0080650134E4B2F3E74F4B03221A7000F0DA
:10075C00FFFA5048FFF74CFE012488E000F0F8FA4D
:10076C004D48FFF745FE4D48FFF742FE0124464B2E
:10077C001C707CE0FFF7F2FD002878D0FFF7BAFD83
:10078C0001461AA8FFF760FE0546002858D1FFF76E
:10079C00C3FD9DF89A30002B40D000F0CDFA9DF8A7
:1007AC009A20131F5BB269B28B4219DB1AAB5959F1
:1007BC002798284400F01EFB0646042802D1043575
:1007CC00EDB2ECE7304B03221A7000F0C1FA32465E
:1007DC00334901A800F0FEFB01A8FFF709FE46E033
:1007EC0012F0030F18D16B1C27982844427828A9C3
:1007FC000B4403F8382CAB1C82780B4403F8382CD0
:10080C00EB1CC2780B4403F8382C1AAB595900F086
:10081C00F1FA0546042805D100F09AFA2148FFF7B1
:10082C00E7FD24E0184B03221A7000F091FA2A46D7
:10083C001B4901A800F0CEFB01A8FFF7D9FD16E07B
:10084C001948FFF7D5FD104B03221A700FE017481B
:10085C00FFF7CEFD164B1A68164901A800F0BAFB3B
:10086C0001A8FFF7C5FD084BFF221A700024204693
:10087C0028B070BD1048FFF7BBFD034BFF221A7068
:10088C000124F4E70124F2E798000020004000085E
:10089C0000C0000088180008A0180008C018000844
:1008AC00E8180008FC1800081019000824190008A2
:1008BC00000000202C1900085419000810B4294B12
:1008CC005B6803F00C03042B2BD0082B2CD013B13A
:1008DC00254B036001E0244B036022494B68C3F3B2
:1008EC000313224CE35CDAB20368D34043604A68DA
:1008FC00C2F30222A25CD2B223FA02F282604A68EC
:10090C00C2F3C222A25CD2B2D340C3604A68C2F323
:10091C00813217498A5CD2B2B3FBF2F3036110BC8B
:10092C007047114B0360D8E70E4A53685268C3F303
:10093C008343023312F4803F04D10E4A02FB03F3CB
:10094C000360CAE7074A526812F4003F04D0094A10
:10095C0002FB03F30360C0E7034A02FB03F30360EB
:10096C00BBE700BF0010024000127A000800002014
:10097C000400002000093D0021B1054A9369184389
:10098C0090617047024A936923EA000090617047B6
:10099C000010024021B1054AD3681843D06070475B
:1009AC00024AD36823EA0000D0607047001002406E
:1009BC0021B1054A1369184310617047024A136943
:1009CC0023EA0000106170470010024008B5234B69
:1009DC0098420CD0224B984214D0224B98421CD0F7
:1009EC00214B984224D0214B98422CD008BD012198
:1009FC004FF48040FFF7CEFF00214FF48040FFF70B
:100A0C00C9FFF3E701214FF40030FFF7D1FF0021BC
:100A1C004FF40030FFF7CCFFE8E701214FF48020C2
:100A2C00FFF7C6FF00214FF48020FFF7C1FFDDE781
:100A3C0001214FF40020FFF7BBFF00214FF40020F1
:100A4C00FFF7B6FFD2E701214FF48010FFF7B0FF9C
:100A5C0000214FF48010FFF7ABFFC7E700380140CF
:100A6C000044004000480040004C00400050004052
:100A7C0030B587B004460D46038A9BB2CA8823F46E
:100A8C0040531343038283899BB2898828896A89DE
:100A9C0001430A4323F4B05323F00C031343A38103
:100AAC00A38A9BB2AA8923F440731343A38201A89F
:100ABC00FFF704FF1E4B9C4224D0039BA28912F427
:100ACC00004F21D103EB830303EB830329688900D7
:100ADC00B3FBF1F1174BA3FB012358090501642368
:100AEC0000FB1313A28912F4004F16D11B013233F1
:100AFC00104AA2FB0323C3F343132B439BB2238162
:100B0C0007B030BD049BD9E703EB830303EB8303EE
:100B1C0029684900B3FBF1F1DCE7DA003232054B0E
:100B2C00A3FB0232C2F3421242EA0503E6E700BF1E
:100B3C00003801401F85EB5129B183899BB243F4E6
:100B4C0000538381704783899BB223F400539BB27B
:100B5C008381704710B4C1F3421401F01F010123CB
:100B6C0003FA01F19C4208D0022C08D0143042B197
:100B7C0003681943016010BC70470C30F7E7103064
:100B8C00F5E7036823EA01010160F4E7C1F308010A
:100B9C00818070478088C0F3080070470388194231
:100BAC0001D00120704700207047000008B52B4B86
:100BBC00984212D02A4B984218D02A4B98421ED0F9
:100BCC00294B984224D0294B98422AD0284B984242
:100BDC0030D0284B984236D008BD01210420FFF7B5
:100BEC00D9FE00210420FFF7D5FEF5E701210820EE
:100BFC00FFF7D0FE00210820FFF7CCFEECE7012127
:100C0C001020FFF7C7FE00211020FFF7C3FEE3E71B
:100C1C0001212020FFF7BEFE00212020FFF7BAFEA5
:100C2C00DAE701214020FFF7B5FE00214020FFF755
:100C3C00B1FED1E701218020FFF7ACFE002180201E
:100C4C00FFF7A8FEC8E701214FF48070FFF7A2FE62
:100C5C0000214FF48070FFF79DFEBDE700080140B6
:100C6C00000C01400010014000140140001801402C
:100C7C00001C01400020014008B501210846FFF787
:100C8C0089FE00210120FFF785FE08BDF0B4CB786A
:100C9C0003F00F02154613F0100F01D08D78154399
:100CAC000B78E3B10668002301E042610133072BA6
:100CBC0014D801229A400C8832EA0404F6D19C0024
:100CCC000F27A74026EA070605FA04F42643CC783A
:100CDC00282CEAD0482CE9D10261E7E706600B88A2
:100CEC00FF2B20D94668002302E0426115E0013356
:100CFC00072B17D803F108040122A2400C8832EA12
:100D0C000404F4D19C000F27A74026EA070605FA35
:100D1C0004F42643CC78282CE7D0CC78482CE6D1A8
:100D2C000261E4E74660F0BC70478368194201D069
:100D3C000120704700207047034B044A5A6002F1AF
:100D4C0088325A60704700BF00200240230167457B
:100D5C00024A136943F0800313617047002002407C
:100D6C000B4BDB6813F0010F0BD1094BDB6813F055
:100D7C00040F08D1064BDB6813F0100F05D00320CD
:100D8C00704701207047022070470420704700BF55
:100D9C000020024010B50446FFF7E2FF012804D101
:100DAC001CB1FFF7DDFF013CF8E704B110BD0520D5
:100DBC00FCE7000038B504464FF43020FFF7EAFF9B
:100DCC00042800D038BD0A4D2B6943F002032B6177
:100DDC006C612B6943F040032B614FF43020FFF71B
:100DEC00D9FF2B6923F00203DB04DB0C2B61E9E751
:100DFC000020024030B583B005460C460023019319
:100E0C004FF40050FFF7C6FF042801D003B030BDEB
:100E1C00124A136943F001031361A3B22B804FF400
:100E2C000050FFF7B7FF042807D00C4A136923F0D2
:100E3C000103DB04DB0C1361E8E702350195019B30
:100E4C00210C19804FF40050FFF7A4FF034A1369DB
:100E5C0023F00103DB04DB0C1361D7E70020024015
:100E6C0082B00023019300932C4A136843F480331F
:100E7C0013602A4B1B6803F400330093019B01336E
:100E8C000193009B1BB9019BB3F5A06FF1D1234BD0
:100E9C001B6813F4003F06D001230093009B012B29
:100EAC0004D002B0704700230093F7E71C4B1A687C
:100EBC0042F010021A601A6822F003021A601A68D3
:100ECC0042F002021A60A3F580535A685A605A68BD
:100EDC005A605A6842F480625A605A6822F47C1252
:100EEC005A605A6842F4E8125A601A6842F08072EA
:100EFC001A600A4B1B6813F0007FFAD0074B5A6834
:100F0C0022F003025A605A6842F002025A60034B04
:100F1C005B6803F00C03082BF9D1C2E70010024008
:100F2C000020024008B5FFF79BFF08BD08B5104B29
:100F3C001A6842F001021A6059680E4A0A405A6057
:100F4C001A6822F0847222F480321A601A6822F431
:100F5C0080221A605A6822F4FE025A604FF41F0273
:100F6C009A60FFF7DFFF044B4FF000629A6008BDF8
:100F7C00001002400000FFF800ED00E0002103E04B
:100F8C000A4B5B584350043109480A4B42189A42A9
:100F9C00F6D3094A02E0002342F8043B074B9A427D
:100FAC00F9D3FFF7C3FFFFF735F97047A419000811
:100FBC00000000207C0000207C000020C4010020E8
:100FCC00FEE703460244934200D1704703F8011B2D
:100FDC00F9E700000EB46FF0004100B59CB01DABFA
:100FEC0002900690079104910848094953F8042B84
:100FFC000591006802A9019300F068F80022029B99
:10100C001A701CB05DF804EB03B070471800002098
:10101C000802FFFF2DE9F0478E6882469E420C467F
:10102C0090461F4638D88A8912F4906F32D02568C2
:10103C0009690133A5EB010965694B4405EB4505CD
:10104C0005EBD5756D109D4238BF1D46530531D546
:10105C00294600F053FB064650B90C234FF0FF30E5
:10106C00CAF80030A38943F04003A381BDE8F087A0
:10107C004A46216900F0CEFAA38923F4906343F029
:10108C008003A38126614E4426603E466561A5EB34
:10109C000905A560BE4200D93E463246414620684D
:1010AC0000F0C6FAA36822689B1B32440020A360A0
:1010BC002260DBE72A4600F07BFB06460028E1D1E4
:1010CC005046216900F0CEFAC7E700002DE9F04F39
:1010DC0098468B8907461B060D4614469DB00ED5C7
:1010EC000B6963B9402100F009FB2860286120B925
:1010FC000C233B604FF0FF30D1E040236B610023A9
:10110C00099320238DF8293030234FF00109CDF8B5
:10111C000C80DFF8A4818DF82A3023469A4613F808
:10112C00012B0AB1252AF9D1BAEB040B0BD05B4683
:10113C00224629463846FFF76DFF013000F0AA80A1
:10114C00099A5A4409929AF80030002B00F0A280B8
:10115C0000234FF0FF32CDE905230AF1010A049375
:10116C0007938DF853301A935446052214F8011B3B
:10117C00514800F041FA049AD8B9D00644BF202354
:10118C008DF85330110744BF2B238DF853309AF848
:10119C0000302A2B15D0544600204FF00A0C079A29
:1011AC00214611F8013B303B092B4ED9B0B10792C7
:1011BC0014E0A0EB080309FA03F31343A2460493CB
:1011CC00D2E7039B191D1B680391002BBBBF5B422D
:1011DC0042F0020207930793B8BF049223782E2B98
:1011EC000CD163782A2B35D1039B02341A1D1B6852
:1011FC000392002BB8BF4FF0FF330593DFF8C8A064
:10120C0003225046217800F0F7F940B14023A0EBBF
:10121C000A0003FA00F0049B01340343049314F80E
:10122C00011B062225488DF8281000F0E5F900284E
:10123C0038D0234B1BBB039B073323F00703083326
:10124C000393099B3344099367E70C4601200CFB7D
:10125C000232A5E700234FF00A0C1946013405931E
:10126C00204610F8012B303A092A03D9002BC5D09F
:10127C000591C3E7044601230CFB0121F0E703AB06
:10128C0000932A4638460F4B04A9AFF30080421C4A
:10129C000646D6D1AB895B063FF52CAF09981DB03D
:1012AC00BDE8F08F03AB00932A463846054B04A9E2
:1012BC0000F07CF8EBE700BF69190008731900080F
:1012CC0000000000211000086F1900082DE9F047FC
:1012DC00164699468A680B6907469342B8BF13466F
:1012EC00336091F843200C46DDF820800AB10133BD
:1012FC0033602368990642BF336802333360256834
:10130C0015F0060506D104F1190AE36832689B1A38
:10131C00AB4228DC94F84320131E226818BF01232B
:10132C0092062DD44946384604F14302C047013099
:10133C0020D02368E56803F00603042B18BF0025B2
:10134C0032684FF00006A36808BFAD1A226908BFC7
:10135C0025EAE5759342C4BF9B1AED181A34B542C1
:10136C001AD1002008E00123524649463846C047AE
:10137C00013003D14FF0FF30BDE8F0870135C4E7F1
:10138C003020E11881F843005A1C94F8451022448F
:10139C00023382F84310C5E70123224649463846FA
:1013AC00C0470130E6D00136D9E700002DE9FF47F0
:1013BC000C46277E9146782F80469A460C9904F16C
:1013CC00430207D8622F0AD8002F00F0D980582F7B
:1013DC0000F0A48004F1420684F842703AE0A7F1D0
:1013EC006303152BF6D801A050F823F05114000814
:1013FC0065140008E1130008E1130008E11300086C
:10140C00E113000865140008E1130008E11300085B
:10141C00E1130008E1130008731500089514000887
:10142C0055150008E1130008E11300089515000894
:10143C00E113000895140008E1130008E1130008FB
:10144C005D1500080B6804F142061A1D1B680A6042
:10145C0084F842300123A4E0256808682E0600F1C8
:10146C0004030AD505680B60002D03DA2D236D42A9
:10147C0084F843300A235E4819E015F0400F0568E4
:10148C000B6018BF2DB2EFE70B682568181D0860BC
:10149C00280601D51D6802E06906FBD51D886F2F53
:1014AC000CBF08230A235248002184F843106668B5
:1014BC00002EA8BF2168A660A4BF21F00401216002
:1014CC000DB9002E4DD01646B5FBF3F103FB1157A9
:1014DC00C75D06F8017D2F46BB420D46F4D9082B9B
:1014EC000BD12368DF0708D5236961689942DEBFF9
:1014FC00302306F8013C06F1FF36921B22614B4665
:10150C0021464046CDF800A003AAFFF7DFFE0130CC
:10151C004CD14FF0FF3004B0BDE8F087344884F86C
:10152C0045700E68236856F8045B1F060E6014D5D0
:10153C00D90744BF43F0200323601DB9236823F06F
:10154C00200323601023AFE7236843F020032360BC
:10155C007823284884F84530E3E75E0648BFADB2EF
:10156C00E6E71646BBE70B6826681D1D60690D6033
:10157C0035061B6801D5186002E07106FBD5188092
:10158C00002316462361BAE70B681A1D0A601E6811
:10159C0000213046626800F02FF808B1801B6060B3
:1015AC0063682361002384F84330A8E73246494638
:1015BC0040462369D0470130ABD023689B0713D436
:1015CC00E068039B9842B8BF1846A4E70123324653
:1015DC0049464046D04701309BD00135E36803991A
:1015EC005B1AAB42F2DCEBE7002504F11906F5E7D8
:1015FC007A1900088B190008034610B5C9B20244C9
:10160C009342184601D1002003E0047801338C4248
:10161C00F6D110BD0A44914200F1FF3300D170475E
:10162C0010B511F8014B914203F8014FF9D110BDDF
:10163C00884210B501EB020402D98442234607D834
:10164C00431EA14208D011F8012B03F8012FF8E733
:10165C00014602448A4200D110BD13F8014D02F834
:10166C00014DF7E738B50546002943D051F8043C45
:10167C000C1F002BB8BFE41800F0D0F81E4A1368FA
:10168C00104633B9636014602846BDE8384000F05A
:10169C00CBB8A3420AD921686218934201BF1A68D9
:1016AC005B685218226063600460EDE71A465B6861
:1016BC000BB1A342FAD911685018A0420BD1206883
:1016CC000144501883421160DED118685B680144F4
:1016DC0011605360D8E702D90C232B60D4E7206843
:1016EC0021188B4201BF19685B680918216063607F
:1016FC005460C9E738BD00BF9C000020F8B5CD1C74
:10170C0025F0030508350C2D38BF0C25002D064699
:10171C0001DBA94203D90C2333600020F8BD00F093
:10172C007DF821490A6814469CB9204F3B6823B9BF
:10173C002146304600F062F838602946304600F009
:10174C005DF8431C23D10C233046336000F06CF859
:10175C00E3E723685B1B17D40B2B03D923601C44D2
:10176C00256004E06368A2420CBF0B6053603046F6
:10177C0000F05AF804F10B00231D20F00700C21AE8
:10178C00CCD01B1AA350C9E722466468CCE7C41C12
:10179C0024F00304A042E3D0211A304600F02EF8C6
:1017AC000130DDD1CFE700BF9C000020A00000205D
:1017BC00F8B5074614460E4621B91146BDE8F84067
:1017CC00FFF79CBF22B9FFF74DFF25462846F8BD11
:1017DC0000F030F8A0420FD221463846FFF78EFFBA
:1017EC0005460028F2D031462246FFF713FF31465A
:1017FC003846FFF737FFE9E73546E7E738B500230A
:10180C00054D044608462B6000F01EF8431C02D11F
:10181C002B6803B1236038BDB4010020014800F0EF
:10182C0011B800BFBC010020014800F00CB800BF8B
:10183C00BC01002051F8043C181F002BBCBF0B58F6
:10184C00C018704770477047044A05491368002B4D
:10185C0008BF0B461844106018467047A4000020BF
:10186C00C8010020F8B500BFF8BC08BC9E46704704
:0C187C00F8B500BFF8BC08BC9E467047E1
:1018880045726173652070726F6772616D20657251
:10189800726F720A0000000057656C636F6D2074E8
:1018A8006F20626F6F746C6F616465722070726F05
:1018B8006772616D0A000000506C65617365206C89
:1018C8006F616420796F7572206865782066696C2D
:1018D8006520746F20746865204D43550A00000028
:1018E80050726F6772616D206572726F723A20254F
:1018F80064000000506172736520737563636573DB
:101908007366756C0A0000004661696C20746F206C
:10191800706172736520446174610A00446F6E657A
:101928000A00000053746172742074686520617045
:10193800706C69636174696F6E20617420256C58DE
:1019480020616464726573730A00000045786974E5
:101958002074686520626F6F746C6F616465720AC9
:1019680000232D302B2000686C4C006566674546C7
:101978004700303132333435363738394142434401
:101988004546003031323334353637383961626391
:04199800646566001C
:04199C00310100080D
:0419A0000D0100082D
:1019A400FFFFFFFF02040608000000000102030419
:1019B40001020304060708091C00002000000000BF
:1019C4000000000000000000000000000000000013
:1019D4000000000000000000000000000000000003
:1019E40000000000000000000000000000000000F3
:1019F40000000000000000000000000000000000E3
:101A040000000000000000000000000000000000D2
:0C1A1400000000000000000000000000C6
:0400000508000F8957
:00000001FF
