:020000040800F2
:106000000050002035640008FD610008FF610008B1
:106010000162000803620008056200080000000039
:1060200000000000000000000000000007620008FF
:1060300009620008000000000B6200080D62000801
:1060400079640008796400087964000879640008BC
:1060500079640008796400087964000879640008AC
:10606000796400087964000879640008796400089C
:10607000796400087964000879640008796400088C
:10608000796400087964000879640008796400087C
:10609000796400087964000879640008796400086C
:1060A000796400087964000879640008796400085C
:1060B000796400087964000879640008796400084C
:1060C000796400087964000879640008796400083C
:1060D000796400087964000879640008796400082C
:1060E0007964000879640008796400080000000001
:1060F00000000000000000000000000000000000A0
:0C61000000000000000000005FF808F143
:10610C0010B5054C237833B9044B13B10448AFF3E5
:10611C0000800123237010BD04000020000000004B
:10612C007C64000808B5034B1BB103490348AFF36B
:10613C00008008BD00000000080000207C640008FE
:10614C0008B50121102000F07BF808BD00B583B024
:10615C004FF40053ADF8043010238DF807300323AF
:10616C008DF8063001A9034800F078F803B05DF80B
:10617C0004FB00BF0010014008B5FFF7E1FFFFF77B
:10618C00E5FF0D4B1B680D4AA2FB03239B09013B4A
:10619C00B3F1807F09D20A4A53600A4BF02183F88D
:1061AC00231000239360072313604FF4005106481B
:1061BC0000F0AAF8FEE700BF00000020D34D6210EB
:1061CC0010E000E000ED00E00010014008B5054AC9
:1061DC00054B9A60002383F31488044B83F30888DF
:1061EC00FFF7CAFF0060000800ED00E0005000203F
:1061FC007047FEE7FEE7FEE7FEE770477047704723
:10620C000D4A138801339BB21380B3F57A7F00D00B
:10621C00704710B5134600221A80084C4FF40051F9
:10622C00204600F06AF8B0FA80F252094FF400519F
:10623C00204600F06BF810BD20000020001001403B
:10624C0021B1054A9369184390617047024A9369DA
:10625C0023EA00009061704700100240F0B4CB7844
:10626C0003F00F02154613F0100F01D08D78154373
:10627C000B78E3B10668002301E042610133072B80
:10628C0014D801229A400C8832EA0404F6D19C00FE
:10629C000F27A74026EA070605FA04F42643CC7814
:1062AC00282CEAD0482CE9D10261E7E706600B887C
:1062BC00FF2B20D94668002302E0426115E0013330
:1062CC00072B17D803F108040122A2400C8832EAEC
:1062DC000404F4D19C000F27A74026EA070605FA10
:1062EC0004F42643CC78282CE7D0CC78482CE6D183
:1062FC000261E4E74660F0BC7047C368194201D004
:10630C000120704700207047016170470AB101619C
:10631C00704741617047000082B0002301930093E5
:10632C002C4A136843F4803313602A4B1B6803F424
:10633C0000330093019B01330193009B1BB9019B1C
:10634C00B3F5A06FF1D1234B1B6813F4003F06D0BB
:10635C0001230093009B012B04D002B07047002353
:10636C000093F7E71C4B1A6842F010021A601A6887
:10637C0022F003021A601A6842F002021A60A3F5B6
:10638C0080535A685A605A685A605A6842F480625C
:10639C005A605A6822F47C125A605A6842F4E81225
:1063AC005A601A6842F080721A600A4B1B6813F02C
:1063BC00007FFAD0074B5A6822F003025A605A68E1
:1063CC0042F002025A60034B5B6803F00C03082B8B
:1063DC00F9D1C2E7001002400020024008B5FFF7D7
:1063EC009BFF08BD08B50E4B1A6842F001021A60FB
:1063FC0059680C4A0A405A601A6822F0847222F4D6
:10640C0080321A601A6822F480221A605A6822F4C8
:10641C00FE025A604FF41F029A60FFF7DFFF08BDBF
:10642C00001002400000FFF8002103E00A4B5B580B
:10643C004350043109480A4B42189A42F6D3094A90
:10644C0002E0002342F8043B074B9A42F9D3FFF7D2
:10645C00C9FFFFF7BBFE70479C64000800000020DA
:10646C00040000200400002024000020FEE70000AF
:10647C00F8B500BFF8BC08BC9E467047F8B500BF25
:08648C00F8BC08BC9E467047F5
:04649400316100086A
:046498000D6100088A
:04649C0000A24A040C
:040000050800643556
:00000001FF
